{
  "contractName": "ComplexStorage",
  "abi": [
    {
      "inputs": [],
      "stateMutability": "nonpayable",
      "type": "constructor"
    },
    {
      "inputs": [],
      "name": "constuint",
      "outputs": [
        {
          "internalType": "uint256",
          "name": "",
          "type": "uint256"
        }
      ],
      "stateMutability": "view",
      "type": "function",
      "constant": true
    },
    {
      "inputs": [
        {
          "internalType": "uint256",
          "name": "",
          "type": "uint256"
        }
      ],
      "name": "deviceDataArray",
      "outputs": [
        {
          "internalType": "string",
          "name": "deviceBrand",
          "type": "string"
        },
        {
          "internalType": "string",
          "name": "deviceYear",
          "type": "string"
        },
        {
          "internalType": "string",
          "name": "batteryWearLevel",
          "type": "string"
        }
      ],
      "stateMutability": "view",
      "type": "function",
      "constant": true
    },
    {
      "inputs": [],
      "name": "investmentsDeadlineTimeStamp",
      "outputs": [
        {
          "internalType": "uint32",
          "name": "",
          "type": "uint32"
        }
      ],
      "stateMutability": "view",
      "type": "function",
      "constant": true
    },
    {
      "inputs": [],
      "name": "investmentsLimit",
      "outputs": [
        {
          "internalType": "uint128",
          "name": "",
          "type": "uint128"
        }
      ],
      "stateMutability": "view",
      "type": "function",
      "constant": true
    },
    {
      "inputs": [],
      "name": "singleDD",
      "outputs": [
        {
          "internalType": "string",
          "name": "deviceBrand",
          "type": "string"
        },
        {
          "internalType": "string",
          "name": "deviceYear",
          "type": "string"
        },
        {
          "internalType": "string",
          "name": "batteryWearLevel",
          "type": "string"
        }
      ],
      "stateMutability": "view",
      "type": "function",
      "constant": true
    },
    {
      "inputs": [],
      "name": "storeduint1",
      "outputs": [
        {
          "internalType": "uint256",
          "name": "",
          "type": "uint256"
        }
      ],
      "stateMutability": "view",
      "type": "function",
      "constant": true
    },
    {
      "inputs": [],
      "name": "string1",
      "outputs": [
        {
          "internalType": "bytes16",
          "name": "",
          "type": "bytes16"
        }
      ],
      "stateMutability": "view",
      "type": "function",
      "constant": true
    },
    {
      "inputs": [],
      "name": "string2",
      "outputs": [
        {
          "internalType": "bytes32",
          "name": "",
          "type": "bytes32"
        }
      ],
      "stateMutability": "view",
      "type": "function",
      "constant": true
    },
    {
      "inputs": [],
      "name": "string3",
      "outputs": [
        {
          "internalType": "string",
          "name": "",
          "type": "string"
        }
      ],
      "stateMutability": "view",
      "type": "function",
      "constant": true
    },
    {
      "inputs": [
        {
          "internalType": "uint256",
          "name": "",
          "type": "uint256"
        }
      ],
      "name": "uintarray",
      "outputs": [
        {
          "internalType": "uint256",
          "name": "",
          "type": "uint256"
        }
      ],
      "stateMutability": "view",
      "type": "function",
      "constant": true
    }
  ],
  "bytecode": "0x600f6000556001805461429f6001600160801b03199182161763ffffffff60801b19167001000000000000000000000000000000004263ffffffff160217909155600280549091166f746573743100000000000000000000001790557f746573743132333600000000000000000000000000000000000000000000000060035560c0604052601560808190527f6c65747320737472696e6720736f6d657468696e67000000000000000000000060a0908152620000c0916004919062000643565b50348015620000ce57600080fd5b5060587fafef6be2b419f4d69d56fe34788202bf06650015554457a2470181981bcce7ef5560637fb01ced36af2255129ceb004046ab791f2c883dd74d458026d7b81c7aaff3566b556040805160a081018252600b606082019081527f6465766963654272616e640000000000000000000000000000000000000000006080830152815281518083018352600a81527f64657669636559656172000000000000000000000000000000000000000000006020828101919091528281019190915282518084018452600981527f776561724c6576656c0000000000000000000000000000000000000000000000818301529282019290925273bccc714d56bc0da0fd33d96d2a87b680dd6d0df660008190526006835281518051919373aee905fdd3ed851e48d22059575b9f4245a82b0493927f720c187f2880b2567f9fccc279625ea13024b8b82a6f73e26d9ca6d82ede1cc5926200023292849291019062000643565b5060208281015180516200024d926001850192019062000643565b50604082015180516200026b91600284019160209091019062000643565b50506040805160a081018252600c606082019081527f6465766963654272616e643200000000000000000000000000000000000000006080830152815281518083018352600b81527f64657669636559656172320000000000000000000000000000000000000000006020828101919091528083019190915282518084018452600a81527f776561724c6576656c320000000000000000000000000000000000000000000081830152828401526001600160a01b03851660009081526006825292909220815180519294509092620003499284929091019062000643565b50602082810151805162000364926001850192019062000643565b50604082015180516200038291600284019160209091019062000643565b50506040805160a081018252600c606082019081527f6465766963654272616e643300000000000000000000000000000000000000006080830152815281518083018352600b81527f64657669636559656172330000000000000000000000000000000000000000006020828101919091528083019190915282518084018452600a81527f776561724c6576656c33000000000000000000000000000000000000000000008183015292820192909252805180519193506009926200044d9284929091019062000643565b50602082810151805162000468926001850192019062000643565b50604082015180516200048691600284019160209091019062000643565b50506007805460018181018355611f407fa66cc928b5edb82af9bd49922954155ab7b0942694bea4ce44661d9a8736c68892830155825480820190935561232892909101919091556001600160a01b038416600090815260066020526040812060088054808501825592528054909350600390910260008051602062000e1483398151915201916200052f918391859160026101009282161592909202600019011604620006d8565b506001820181600101908054600181600116156101000203166002900462000559929190620006d8565b506002828101805462000580928481019291600019610100600183161502011604620006d8565b5050506001600160a01b03811660009081526006602052604081206008805460018181018355919093528154919260030260008051602062000e148339815191520191620005e79183918591600261010091831615919091026000190190911604620006d8565b506001820181600101908054600181600116156101000203166002900462000611929190620006d8565b506002828101805462000638928481019291600019610100600183161502011604620006d8565b505050505062000779565b828054600181600116156101000203166002900490600052602060002090601f0160209004810192826200067b5760008555620006c6565b82601f106200069657805160ff1916838001178555620006c6565b82800160010185558215620006c6579182015b82811115620006c6578251825591602001919060010190620006a9565b50620006d492915062000762565b5090565b828054600181600116156101000203166002900490600052602060002090601f016020900481019282620007105760008555620006c6565b82601f10620007235780548555620006c6565b82800160010185558215620006c657600052602060002091601f016020900482015b82811115620006c657825482559160010191906001019062000745565b5b80821115620006d4576000815560010162000763565b61068b80620007896000396000f3fe608060405234801561001057600080fd5b506004361061008e5760003560e01c80630ca0aa791461009357806311f9c74d146100ad57806328a20b5e146100b55780636c0c1bcf1461020157806384eeda561461021e578063927558601461023b57806397ba784f146102b8578063a7b2cfca146102c0578063df4fddf5146102e5578063eec65f2914610306575b600080fd5b61009b61032a565b60408051918252519081900360200190f35b61009b610330565b6100bd610336565b60405180806020018060200180602001848103845287818151815260200191508051906020019080838360005b838110156101025781810151838201526020016100ea565b50505050905090810190601f16801561012f5780820380516001836020036101000a031916815260200191505b50848103835286518152865160209182019188019080838360005b8381101561016257818101518382015260200161014a565b50505050905090810190601f16801561018f5780820380516001836020036101000a031916815260200191505b50848103825285518152855160209182019187019080838360005b838110156101c25781810151838201526020016101aa565b50505050905090810190601f1680156101ef5780820380516001836020036101000a031916815260200191505b50965050505050505060405180910390f35b61009b6004803603602081101561021757600080fd5b50356104f8565b6100bd6004803603602081101561023457600080fd5b5035610519565b610243610597565b6040805160208082528351818301528351919283929083019185019080838360005b8381101561027d578181015183820152602001610265565b50505050905090810190601f1680156102aa5780820380516001836020036101000a031916815260200191505b509250505060405180910390f35b61009b610625565b6102c861062a565b604080516001600160801b03199092168252519081900360200190f35b6102ed610633565b6040805163ffffffff9092168252519081900360200190f35b61030e610646565b604080516001600160801b039092168252519081900360200190f35b60035481565b60005481565b60098054604080516020601f600260001961010060018816150201909516949094049384018190048102820181019092528281529183918301828280156103be5780601f10610393576101008083540402835291602001916103be565b820191906000526020600020905b8154815290600101906020018083116103a157829003601f168201915b505050505090806001018054600181600116156101000203166002900480601f01602080910402602001604051908101604052809291908181526020018280546001816001161561010002031660029004801561045c5780601f106104315761010080835404028352916020019161045c565b820191906000526020600020905b81548152906001019060200180831161043f57829003601f168201915b50505060028085018054604080516020601f60001961010060018716150201909416959095049283018590048502810185019091528181529596959450909250908301828280156104ee5780601f106104c3576101008083540402835291602001916104ee565b820191906000526020600020905b8154815290600101906020018083116104d157829003601f168201915b5050505050905083565b6007818154811061050857600080fd5b600091825260209091200154905081565b6008818154811061052957600080fd5b60009182526020918290206003919091020180546040805160026001841615610100026000190190931692909204601f8101859004850283018501909152808252919350918391908301828280156103be5780601f10610393576101008083540402835291602001916103be565b6004805460408051602060026001851615610100026000190190941693909304601f8101849004840282018401909252818152929183018282801561061d5780601f106105f25761010080835404028352916020019161061d565b820191906000526020600020905b81548152906001019060200180831161060057829003601f168201915b505050505081565b601081565b60025460801b81565b600154600160801b900463ffffffff1681565b6001546001600160801b03168156fea26469706673582212207ebffbbe47a22c3376dd9e41a08de4cfa832b5577bbabf416f6a0e77cad7920764736f6c63430007060033f3f7a9fe364faab93b216da50a3214154f22a0a2b415b23a84c8169e8b636ee3",
  "immutableReferences": {},
  "source": "// SPDX-License-Identifier: MIT\r\npragma solidity ^0.7.0;\r\n\r\ncontract ComplexStorage {\r\n    uint public storeduint1 = 15;\r\n    uint public constant constuint = 16;\r\n    uint128 public investmentsLimit = 17055;\r\n    uint32 public investmentsDeadlineTimeStamp = uint32(block.timestamp);\r\n\r\n    bytes16 public string1 = \"test1\";\r\n    bytes32 public string2 = \"test1236\";\r\n    string public string3 = \"lets string something\";\r\n\r\n    mapping (address => uint) uints1;\r\n    mapping (address => DeviceData) structs1;\r\n\r\n    uint[] public uintarray;\r\n    DeviceData[] public deviceDataArray;\r\n    DeviceData public singleDD;\r\n\r\n    struct DeviceData {\r\n        string deviceBrand;\r\n        string deviceYear;\r\n        string batteryWearLevel;\r\n    }\r\n\r\n    constructor() public {\r\n        address address1 = 0xbCcc714d56bc0da0fd33d96d2a87b680dD6D0DF6;\r\n        address address2 = 0xaee905FdD3ED851e48d22059575b9F4245A82B04;\r\n\r\n        uints1[address1] = 88;\r\n        uints1[address2] = 99;\r\n\r\n        structs1[address1] = DeviceData(\"deviceBrand\", \"deviceYear\", \"wearLevel\");\r\n        structs1[address2] = DeviceData(\"deviceBrand2\", \"deviceYear2\", \"wearLevel2\");\r\n        singleDD = DeviceData(\"deviceBrand3\", \"deviceYear3\", \"wearLevel3\");\r\n\r\n        uintarray.push(8000);\r\n        uintarray.push(9000);\r\n\r\n        deviceDataArray.push(structs1[address1]);\r\n        deviceDataArray.push(structs1[address2]);\r\n    }\r\n}\r\n",
  "sourcePath": "C:/Users/frank/blockchain-hackathon-enbw/contracts/ComplexStorage.sol",
  "compiler": {
    "name": "solc",
    "version": "0.7.6+commit.7338295f.Emscripten.clang"
  },
  "schemaVersion": "3.3.4",
  "updatedAt": "2021-03-29T10:58:54.090Z",
  "networkType": "ethereum",
  "devdoc": {
    "kind": "dev",
    "methods": {},
    "version": 1
  },
  "userdoc": {
    "kind": "user",
    "methods": {},
    "version": 1
  }
}